:0400030002080000EF
:10016C00E4F50AF50B7FE87E031201B5750A0075FC
:10017C000B047FE87E031201B5E4F50AF50B7FE86A
:10018C007E031201B5750A00750B027FE87E03022F
:02019C0001B5AB
:10000E0012019E12016CD295D296E50B6405450A3B
:10001E007005F50A750B0420911B7F147E001201EA
:10002E00B53091FD7F147E001201B5050BE50B7006
:10003E00D9050A80D52094267F147E001201B53092
:10004E0094FD7F147E001201B5D3E50B9400E50AF2
:10005E00940040B6E50B150B70B0150A80AC2093DA
:10006E00187F147E001201B53093FD7F147E0012AE
:10007E0001B5E4F50AF50B809120928E7F147E0077
:10008E001201B53092FD7F147E001201B5750A0083
:06009E00750B04020018BE
:03000B00020130BF
:04013000C0E0C0D09B
:10013400758A0C758CFED3E5099428E50894005063
:1001440012E509950BE508950A5004D290800CC27B
:10015400908008750800750900D2900509E50970BA
:0301640002050889
:05016700D0D0D0E03211
:10019E005389F0438901758A0C758CFEC28DD28C01
:0701AE00D2A9D2AFC2B922B1
:1001B500EF1FAC0670011E4C600A7D027CEFDCFE71
:0401C500DDFC80ECF1
:0101C9002213
:030000000200A457
:0C00A400787FE4F6D8FD75810B0200EBBC
:1000B00002000EE493A3F8E493A34003F68001F258
:1000C00008DFF48029E493A3F85407240CC8C33351
:1000D000C4540F4420C8834004F456800146F6DF20
:1000E000E4800B0102040810204080900003E47EAD
:1000F000019360BCA3FF543F30E509541FFEE49315
:10010000A360010ECF54C025E060A840B8E493A3DB
:10011000FAE493A3F8E493A3C8C582C8CAC583CA06
:10012000F0A3C8C582C8CAC583CADFE9DEE780BEBE
:0100070000F8
:00000001FF
